{
  "_format": "hh-sol-artifact-1",
  "contractName": "JoyTradeEscrow",
  "sourceName": "contracts/JoyTradeEscrow.sol",
  "abi": [
    {
      "inputs": [
        {
          "internalType": "address",
          "name": "_owner",
          "type": "address"
        },
        {
          "internalType": "address",
          "name": "_feeCollector",
          "type": "address"
        }
      ],
      "stateMutability": "nonpayable",
      "type": "constructor"
    },
    {
      "anonymous": false,
      "inputs": [
        {
          "indexed": true,
          "internalType": "uint256",
          "name": "dealId",
          "type": "uint256"
        }
      ],
      "name": "DealCanceled",
      "type": "event"
    },
    {
      "anonymous": false,
      "inputs": [
        {
          "indexed": true,
          "internalType": "uint256",
          "name": "dealId",
          "type": "uint256"
        },
        {
          "indexed": true,
          "internalType": "address",
          "name": "buyer",
          "type": "address"
        },
        {
          "indexed": true,
          "internalType": "address",
          "name": "seller",
          "type": "address"
        },
        {
          "indexed": false,
          "internalType": "address",
          "name": "token",
          "type": "address"
        },
        {
          "indexed": false,
          "internalType": "uint256",
          "name": "amount",
          "type": "uint256"
        },
        {
          "indexed": false,
          "internalType": "uint64",
          "name": "expiresAt",
          "type": "uint64"
        },
        {
          "indexed": false,
          "internalType": "uint16",
          "name": "feeBps",
          "type": "uint16"
        },
        {
          "indexed": false,
          "internalType": "bytes32",
          "name": "metadata",
          "type": "bytes32"
        }
      ],
      "name": "DealCreated",
      "type": "event"
    },
    {
      "anonymous": false,
      "inputs": [
        {
          "indexed": true,
          "internalType": "uint256",
          "name": "dealId",
          "type": "uint256"
        },
        {
          "indexed": true,
          "internalType": "address",
          "name": "buyer",
          "type": "address"
        },
        {
          "indexed": false,
          "internalType": "uint256",
          "name": "amount",
          "type": "uint256"
        }
      ],
      "name": "DealFunded",
      "type": "event"
    },
    {
      "anonymous": false,
      "inputs": [
        {
          "indexed": true,
          "internalType": "uint256",
          "name": "dealId",
          "type": "uint256"
        },
        {
          "indexed": true,
          "internalType": "address",
          "name": "buyer",
          "type": "address"
        },
        {
          "indexed": false,
          "internalType": "uint256",
          "name": "amount",
          "type": "uint256"
        }
      ],
      "name": "DealRefunded",
      "type": "event"
    },
    {
      "anonymous": false,
      "inputs": [
        {
          "indexed": true,
          "internalType": "uint256",
          "name": "dealId",
          "type": "uint256"
        },
        {
          "indexed": true,
          "internalType": "address",
          "name": "seller",
          "type": "address"
        },
        {
          "indexed": false,
          "internalType": "uint256",
          "name": "sellerPayout",
          "type": "uint256"
        },
        {
          "indexed": false,
          "internalType": "uint256",
          "name": "feeAmount",
          "type": "uint256"
        }
      ],
      "name": "DealReleased",
      "type": "event"
    },
    {
      "anonymous": false,
      "inputs": [
        {
          "indexed": true,
          "internalType": "address",
          "name": "oldCollector",
          "type": "address"
        },
        {
          "indexed": true,
          "internalType": "address",
          "name": "newCollector",
          "type": "address"
        }
      ],
      "name": "FeeCollectorChanged",
      "type": "event"
    },
    {
      "anonymous": false,
      "inputs": [
        {
          "indexed": true,
          "internalType": "address",
          "name": "previousOwner",
          "type": "address"
        },
        {
          "indexed": true,
          "internalType": "address",
          "name": "newOwner",
          "type": "address"
        }
      ],
      "name": "OwnershipTransferred",
      "type": "event"
    },
    {
      "anonymous": false,
      "inputs": [
        {
          "indexed": false,
          "internalType": "address",
          "name": "account",
          "type": "address"
        }
      ],
      "name": "Paused",
      "type": "event"
    },
    {
      "anonymous": false,
      "inputs": [
        {
          "indexed": false,
          "internalType": "address",
          "name": "account",
          "type": "address"
        }
      ],
      "name": "Unpaused",
      "type": "event"
    },
    {
      "inputs": [
        {
          "internalType": "uint256",
          "name": "dealId",
          "type": "uint256"
        }
      ],
      "name": "cancel",
      "outputs": [],
      "stateMutability": "nonpayable",
      "type": "function"
    },
    {
      "inputs": [
        {
          "internalType": "address",
          "name": "buyer",
          "type": "address"
        },
        {
          "internalType": "address",
          "name": "seller",
          "type": "address"
        },
        {
          "internalType": "address",
          "name": "token",
          "type": "address"
        },
        {
          "internalType": "uint256",
          "name": "amount",
          "type": "uint256"
        },
        {
          "internalType": "uint64",
          "name": "expiresAt",
          "type": "uint64"
        },
        {
          "internalType": "uint16",
          "name": "feeBps",
          "type": "uint16"
        },
        {
          "internalType": "bytes32",
          "name": "metadata",
          "type": "bytes32"
        }
      ],
      "name": "createDeal",
      "outputs": [
        {
          "internalType": "uint256",
          "name": "dealId",
          "type": "uint256"
        }
      ],
      "stateMutability": "nonpayable",
      "type": "function"
    },
    {
      "inputs": [
        {
          "internalType": "uint256",
          "name": "",
          "type": "uint256"
        }
      ],
      "name": "deals",
      "outputs": [
        {
          "internalType": "address",
          "name": "buyer",
          "type": "address"
        },
        {
          "internalType": "address",
          "name": "seller",
          "type": "address"
        },
        {
          "internalType": "contract IERC20",
          "name": "token",
          "type": "address"
        },
        {
          "internalType": "uint256",
          "name": "amount",
          "type": "uint256"
        },
        {
          "internalType": "uint64",
          "name": "expiresAt",
          "type": "uint64"
        },
        {
          "internalType": "uint16",
          "name": "feeBps",
          "type": "uint16"
        },
        {
          "internalType": "enum JoyTradeEscrow.DealStatus",
          "name": "status",
          "type": "uint8"
        },
        {
          "internalType": "bytes32",
          "name": "metadata",
          "type": "bytes32"
        }
      ],
      "stateMutability": "view",
      "type": "function"
    },
    {
      "inputs": [],
      "name": "feeCollector",
      "outputs": [
        {
          "internalType": "address",
          "name": "",
          "type": "address"
        }
      ],
      "stateMutability": "view",
      "type": "function"
    },
    {
      "inputs": [
        {
          "internalType": "uint256",
          "name": "dealId",
          "type": "uint256"
        }
      ],
      "name": "fund",
      "outputs": [],
      "stateMutability": "nonpayable",
      "type": "function"
    },
    {
      "inputs": [
        {
          "internalType": "uint256",
          "name": "dealId",
          "type": "uint256"
        }
      ],
      "name": "getDeal",
      "outputs": [
        {
          "components": [
            {
              "internalType": "address",
              "name": "buyer",
              "type": "address"
            },
            {
              "internalType": "address",
              "name": "seller",
              "type": "address"
            },
            {
              "internalType": "contract IERC20",
              "name": "token",
              "type": "address"
            },
            {
              "internalType": "uint256",
              "name": "amount",
              "type": "uint256"
            },
            {
              "internalType": "uint64",
              "name": "expiresAt",
              "type": "uint64"
            },
            {
              "internalType": "uint16",
              "name": "feeBps",
              "type": "uint16"
            },
            {
              "internalType": "enum JoyTradeEscrow.DealStatus",
              "name": "status",
              "type": "uint8"
            },
            {
              "internalType": "bytes32",
              "name": "metadata",
              "type": "bytes32"
            }
          ],
          "internalType": "struct JoyTradeEscrow.Deal",
          "name": "",
          "type": "tuple"
        }
      ],
      "stateMutability": "view",
      "type": "function"
    },
    {
      "inputs": [],
      "name": "nextDealId",
      "outputs": [
        {
          "internalType": "uint256",
          "name": "",
          "type": "uint256"
        }
      ],
      "stateMutability": "view",
      "type": "function"
    },
    {
      "inputs": [],
      "name": "owner",
      "outputs": [
        {
          "internalType": "address",
          "name": "",
          "type": "address"
        }
      ],
      "stateMutability": "view",
      "type": "function"
    },
    {
      "inputs": [],
      "name": "pause",
      "outputs": [],
      "stateMutability": "nonpayable",
      "type": "function"
    },
    {
      "inputs": [],
      "name": "paused",
      "outputs": [
        {
          "internalType": "bool",
          "name": "",
          "type": "bool"
        }
      ],
      "stateMutability": "view",
      "type": "function"
    },
    {
      "inputs": [
        {
          "internalType": "uint256",
          "name": "dealId",
          "type": "uint256"
        }
      ],
      "name": "refund",
      "outputs": [],
      "stateMutability": "nonpayable",
      "type": "function"
    },
    {
      "inputs": [
        {
          "internalType": "uint256",
          "name": "dealId",
          "type": "uint256"
        }
      ],
      "name": "release",
      "outputs": [],
      "stateMutability": "nonpayable",
      "type": "function"
    },
    {
      "inputs": [],
      "name": "renounceOwnership",
      "outputs": [],
      "stateMutability": "nonpayable",
      "type": "function"
    },
    {
      "inputs": [
        {
          "internalType": "address",
          "name": "_collector",
          "type": "address"
        }
      ],
      "name": "setFeeCollector",
      "outputs": [],
      "stateMutability": "nonpayable",
      "type": "function"
    },
    {
      "inputs": [
        {
          "internalType": "address",
          "name": "newOwner",
          "type": "address"
        }
      ],
      "name": "transferOwnership",
      "outputs": [],
      "stateMutability": "nonpayable",
      "type": "function"
    },
    {
      "inputs": [],
      "name": "unpause",
      "outputs": [],
      "stateMutability": "nonpayable",
      "type": "function"
    }
  ],
  "bytecode": "0x608060405260016003553480156200001657600080fd5b50604051620032d4380380620032d483398181016040528101906200003c919062000280565b60016000819055506000600160006101000a81548160ff0219169083151502179055506200007f620000736200014b60201b60201c565b6200015360201b60201c565b600073ffffffffffffffffffffffffffffffffffffffff168173ffffffffffffffffffffffffffffffffffffffff1603620000f1576040517f08c379a0000000000000000000000000000000000000000000000000000000008152600401620000e89062000328565b60405180910390fd5b80600260006101000a81548173ffffffffffffffffffffffffffffffffffffffff021916908373ffffffffffffffffffffffffffffffffffffffff16021790555062000143826200015360201b60201c565b50506200034a565b600033905090565b600060018054906101000a900473ffffffffffffffffffffffffffffffffffffffff169050816001806101000a81548173ffffffffffffffffffffffffffffffffffffffff021916908373ffffffffffffffffffffffffffffffffffffffff1602179055508173ffffffffffffffffffffffffffffffffffffffff168173ffffffffffffffffffffffffffffffffffffffff167f8be0079c531659141344cd1fd0a4f28419497f9722a3daafe3b4186f6b6457e060405160405180910390a35050565b600080fd5b600073ffffffffffffffffffffffffffffffffffffffff82169050919050565b600062000248826200021b565b9050919050565b6200025a816200023b565b81146200026657600080fd5b50565b6000815190506200027a816200024f565b92915050565b600080604083850312156200029a576200029962000216565b5b6000620002aa8582860162000269565b9250506020620002bd8582860162000269565b9150509250929050565b600082825260208201905092915050565b7f666565436f6c6c6563746f723d30000000000000000000000000000000000000600082015250565b600062000310600e83620002c7565b91506200031d82620002d8565b602082019050919050565b60006020820190508181036000830152620003438162000301565b9050919050565b612f7a806200035a6000396000f3fe608060405234801561001057600080fd5b50600436106101005760003560e01c8063715018a611610097578063a42dce8011610066578063a42dce8014610268578063c415b95c14610284578063ca1d209d146102a2578063f2fde38b146102be57610100565b8063715018a61461020657806382fd5bac146102105780638456cb59146102405780638da5cb5b1461024a57610100565b80633f4ba83a116100d35780633f4ba83a146101a457806340e58ee5146101ae5780634d9879e3146101ca5780635c975abb146101e857610100565b806303988f8414610105578063230362931461013c578063278ecde11461016c57806337bdc99b14610188575b600080fd5b61011f600480360381019061011a9190611e6c565b6102da565b604051610133989796959493929190612018565b60405180910390f35b61015660048036038101906101519190612146565b6103b1565b60405161016391906121e8565b60405180910390f35b61018660048036038101906101819190611e6c565b61080f565b005b6101a2600480360381019061019d9190611e6c565b610aa4565b005b6101ac610dfb565b005b6101c860048036038101906101c39190611e6c565b610e0d565b005b6101d261102b565b6040516101df91906121e8565b60405180910390f35b6101f0611031565b6040516101fd919061221e565b60405180910390f35b61020e611048565b005b61022a60048036038101906102259190611e6c565b61105c565b6040516102379190612344565b60405180910390f35b61024861122d565b005b61025261123f565b60405161025f9190612360565b60405180910390f35b610282600480360381019061027d919061237b565b611267565b005b61028c61139e565b6040516102999190612360565b60405180910390f35b6102bc60048036038101906102b79190611e6c565b6113c4565b005b6102d860048036038101906102d3919061237b565b611666565b005b60046020528060005260406000206000915090508060000160009054906101000a900473ffffffffffffffffffffffffffffffffffffffff16908060010160009054906101000a900473ffffffffffffffffffffffffffffffffffffffff16908060020160009054906101000a900473ffffffffffffffffffffffffffffffffffffffff16908060030154908060040160009054906101000a900467ffffffffffffffff16908060040160089054906101000a900461ffff169080600401600a9054906101000a900460ff16908060050154905088565b60006103bb6116e9565b600073ffffffffffffffffffffffffffffffffffffffff168873ffffffffffffffffffffffffffffffffffffffff16141580156104255750600073ffffffffffffffffffffffffffffffffffffffff168773ffffffffffffffffffffffffffffffffffffffff1614155b610464576040517f08c379a000000000000000000000000000000000000000000000000000000000815260040161045b90612405565b60405180910390fd5b600073ffffffffffffffffffffffffffffffffffffffff168673ffffffffffffffffffffffffffffffffffffffff16036104d3576040517f08c379a00000000000000000000000000000000000000000000000000000000081526004016104ca90612471565b60405180910390fd5b60008511610516576040517f08c379a000000000000000000000000000000000000000000000000000000000815260040161050d906124dd565b60405180910390fd5b6107d08361ffff16111561055f576040517f08c379a000000000000000000000000000000000000000000000000000000000815260040161055690612549565b60405180910390fd5b6003600081548092919061057290612598565b9190505590506040518061010001604052808973ffffffffffffffffffffffffffffffffffffffff1681526020018873ffffffffffffffffffffffffffffffffffffffff1681526020018773ffffffffffffffffffffffffffffffffffffffff1681526020018681526020018567ffffffffffffffff1681526020018461ffff1681526020016001600581111561060c5761060b611f88565b5b8152602001838152506004600083815260200190815260200160002060008201518160000160006101000a81548173ffffffffffffffffffffffffffffffffffffffff021916908373ffffffffffffffffffffffffffffffffffffffff16021790555060208201518160010160006101000a81548173ffffffffffffffffffffffffffffffffffffffff021916908373ffffffffffffffffffffffffffffffffffffffff16021790555060408201518160020160006101000a81548173ffffffffffffffffffffffffffffffffffffffff021916908373ffffffffffffffffffffffffffffffffffffffff1602179055506060820151816003015560808201518160040160006101000a81548167ffffffffffffffff021916908367ffffffffffffffff16021790555060a08201518160040160086101000a81548161ffff021916908361ffff16021790555060c082015181600401600a6101000a81548160ff0219169083600581111561078457610783611f88565b5b021790555060e082015181600501559050508673ffffffffffffffffffffffffffffffffffffffff168873ffffffffffffffffffffffffffffffffffffffff16827fcfd7029e604e0ff84bbac3e5fe476c0277ff319278e6d3d14365fa23869ef06b89898989896040516107fc9594939291906125e0565b60405180910390a4979650505050505050565b610817611733565b61081f6116e9565b60006004600083815260200190815260200160002090506002600581111561084a57610849611f88565b5b81600401600a9054906101000a900460ff16600581111561086e5761086d611f88565b5b146108ae576040517f08c379a00000000000000000000000000000000000000000000000000000000081526004016108a59061267f565b60405180910390fd5b8060000160009054906101000a900473ffffffffffffffffffffffffffffffffffffffff1673ffffffffffffffffffffffffffffffffffffffff163373ffffffffffffffffffffffffffffffffffffffff16148061093e575061090f61123f565b73ffffffffffffffffffffffffffffffffffffffff163373ffffffffffffffffffffffffffffffffffffffff16145b61097d576040517f08c379a0000000000000000000000000000000000000000000000000000000008152600401610974906126eb565b60405180910390fd5b600481600401600a6101000a81548160ff021916908360058111156109a5576109a4611f88565b5b0217905550610a218160000160009054906101000a900473ffffffffffffffffffffffffffffffffffffffff1682600301548360020160009054906101000a900473ffffffffffffffffffffffffffffffffffffffff1673ffffffffffffffffffffffffffffffffffffffff166117829092919063ffffffff16565b8060000160009054906101000a900473ffffffffffffffffffffffffffffffffffffffff1673ffffffffffffffffffffffffffffffffffffffff16827f421ac64b0a0e649da74bb1528ebb1736572ec660f9aff6b354fd500e22c634188360030154604051610a9091906121e8565b60405180910390a350610aa1611808565b50565b610aac611733565b610ab46116e9565b600060046000838152602001908152602001600020905060026005811115610adf57610ade611f88565b5b81600401600a9054906101000a900460ff166005811115610b0357610b02611f88565b5b14610b43576040517f08c379a0000000000000000000000000000000000000000000000000000000008152600401610b3a9061267f565b60405180910390fd5b8060000160009054906101000a900473ffffffffffffffffffffffffffffffffffffffff1673ffffffffffffffffffffffffffffffffffffffff163373ffffffffffffffffffffffffffffffffffffffff161480610bd35750610ba461123f565b73ffffffffffffffffffffffffffffffffffffffff163373ffffffffffffffffffffffffffffffffffffffff16145b610c12576040517f08c379a0000000000000000000000000000000000000000000000000000000008152600401610c09906126eb565b60405180910390fd5b60006127108260040160089054906101000a900461ffff1661ffff168360030154610c3d919061270b565b610c47919061277c565b90506000818360030154610c5b91906127ad565b9050600383600401600a6101000a81548160ff02191690836005811115610c8557610c84611f88565b5b02179055506000821115610d0557610d04600260009054906101000a900473ffffffffffffffffffffffffffffffffffffffff16838560020160009054906101000a900473ffffffffffffffffffffffffffffffffffffffff1673ffffffffffffffffffffffffffffffffffffffff166117829092919063ffffffff16565b5b610d788360010160009054906101000a900473ffffffffffffffffffffffffffffffffffffffff16828560020160009054906101000a900473ffffffffffffffffffffffffffffffffffffffff1673ffffffffffffffffffffffffffffffffffffffff166117829092919063ffffffff16565b8260010160009054906101000a900473ffffffffffffffffffffffffffffffffffffffff1673ffffffffffffffffffffffffffffffffffffffff16847fbb6ce3e0f2f2a5086ab3121cfb621f8ad19247796c1019e43fc7df9e814eaaa18385604051610de59291906127e1565b60405180910390a3505050610df8611808565b50565b610e03611812565b610e0b611890565b565b610e156116e9565b600060046000838152602001908152602001600020905060016005811115610e4057610e3f611f88565b5b81600401600a9054906101000a900460ff166005811115610e6457610e63611f88565b5b14610ea4576040517f08c379a0000000000000000000000000000000000000000000000000000000008152600401610e9b90612856565b60405180910390fd5b8060000160009054906101000a900473ffffffffffffffffffffffffffffffffffffffff1673ffffffffffffffffffffffffffffffffffffffff163373ffffffffffffffffffffffffffffffffffffffff161480610f5157508060010160009054906101000a900473ffffffffffffffffffffffffffffffffffffffff1673ffffffffffffffffffffffffffffffffffffffff163373ffffffffffffffffffffffffffffffffffffffff16145b80610f8e5750610f5f61123f565b73ffffffffffffffffffffffffffffffffffffffff163373ffffffffffffffffffffffffffffffffffffffff16145b610fcd576040517f08c379a0000000000000000000000000000000000000000000000000000000008152600401610fc4906126eb565b60405180910390fd5b600581600401600a6101000a81548160ff02191690836005811115610ff557610ff4611f88565b5b0217905550817f718bce6c58c439a81103f4d028e605d027207718373274d8e797f2cdf83fd34460405160405180910390a25050565b60035481565b6000600160009054906101000a900460ff16905090565b611050611812565b61105a60006118f3565b565b611064611d87565b60046000838152602001908152602001600020604051806101000160405290816000820160009054906101000a900473ffffffffffffffffffffffffffffffffffffffff1673ffffffffffffffffffffffffffffffffffffffff1673ffffffffffffffffffffffffffffffffffffffff1681526020016001820160009054906101000a900473ffffffffffffffffffffffffffffffffffffffff1673ffffffffffffffffffffffffffffffffffffffff1673ffffffffffffffffffffffffffffffffffffffff1681526020016002820160009054906101000a900473ffffffffffffffffffffffffffffffffffffffff1673ffffffffffffffffffffffffffffffffffffffff1673ffffffffffffffffffffffffffffffffffffffff168152602001600382015481526020016004820160009054906101000a900467ffffffffffffffff1667ffffffffffffffff1667ffffffffffffffff1681526020016004820160089054906101000a900461ffff1661ffff1661ffff16815260200160048201600a9054906101000a900460ff16600581111561120657611205611f88565b5b600581111561121857611217611f88565b5b81526020016005820154815250509050919050565b611235611812565b61123d6119b6565b565b600060018054906101000a900473ffffffffffffffffffffffffffffffffffffffff16905090565b61126f611812565b600073ffffffffffffffffffffffffffffffffffffffff168173ffffffffffffffffffffffffffffffffffffffff16036112de576040517f08c379a00000000000000000000000000000000000000000000000000000000081526004016112d5906128c2565b60405180910390fd5b8073ffffffffffffffffffffffffffffffffffffffff16600260009054906101000a900473ffffffffffffffffffffffffffffffffffffffff1673ffffffffffffffffffffffffffffffffffffffff167f649c5e3d0ed183894196148e193af316452b0037e77d2ff0fef23b7dc722bed060405160405180910390a380600260006101000a81548173ffffffffffffffffffffffffffffffffffffffff021916908373ffffffffffffffffffffffffffffffffffffffff16021790555050565b600260009054906101000a900473ffffffffffffffffffffffffffffffffffffffff1681565b6113cc611733565b6113d46116e9565b6000600460008381526020019081526020016000209050600160058111156113ff576113fe611f88565b5b81600401600a9054906101000a900460ff16600581111561142357611422611f88565b5b14611463576040517f08c379a000000000000000000000000000000000000000000000000000000000815260040161145a90612856565b60405180910390fd5b8060000160009054906101000a900473ffffffffffffffffffffffffffffffffffffffff1673ffffffffffffffffffffffffffffffffffffffff163373ffffffffffffffffffffffffffffffffffffffff16146114f5576040517f08c379a00000000000000000000000000000000000000000000000000000000081526004016114ec9061292e565b60405180910390fd5b60008160040160009054906101000a900467ffffffffffffffff1667ffffffffffffffff1614611585578060040160009054906101000a900467ffffffffffffffff1667ffffffffffffffff16421115611584576040517f08c379a000000000000000000000000000000000000000000000000000000000815260040161157b9061299a565b60405180910390fd5b5b6115da333083600301548460020160009054906101000a900473ffffffffffffffffffffffffffffffffffffffff1673ffffffffffffffffffffffffffffffffffffffff16611a18909392919063ffffffff16565b600281600401600a6101000a81548160ff0219169083600581111561160257611601611f88565b5b02179055503373ffffffffffffffffffffffffffffffffffffffff16827fcaee61ccea433411b2a8848cb622487f4368e8c231d05982e0f89e3eb7a1f8c8836003015460405161165291906121e8565b60405180910390a350611663611808565b50565b61166e611812565b600073ffffffffffffffffffffffffffffffffffffffff168173ffffffffffffffffffffffffffffffffffffffff16036116dd576040517f08c379a00000000000000000000000000000000000000000000000000000000081526004016116d490612a2c565b60405180910390fd5b6116e6816118f3565b50565b6116f1611031565b15611731576040517f08c379a000000000000000000000000000000000000000000000000000000000815260040161172890612a98565b60405180910390fd5b565b600260005403611778576040517f08c379a000000000000000000000000000000000000000000000000000000000815260040161176f90612b04565b60405180910390fd5b6002600081905550565b6118038363a9059cbb60e01b84846040516024016117a1929190612b24565b604051602081830303815290604052907bffffffffffffffffffffffffffffffffffffffffffffffffffffffff19166020820180517bffffffffffffffffffffffffffffffffffffffffffffffffffffffff8381831617835250505050611aa1565b505050565b6001600081905550565b61181a611b69565b73ffffffffffffffffffffffffffffffffffffffff1661183861123f565b73ffffffffffffffffffffffffffffffffffffffff161461188e576040517f08c379a000000000000000000000000000000000000000000000000000000000815260040161188590612b99565b60405180910390fd5b565b611898611b71565b6000600160006101000a81548160ff0219169083151502179055507f5db9ee0a495bf2e6ff9c91a7834c1ba4fdd244a5e8aa4e537bd38aeae4b073aa6118dc611b69565b6040516118e99190612360565b60405180910390a1565b600060018054906101000a900473ffffffffffffffffffffffffffffffffffffffff169050816001806101000a81548173ffffffffffffffffffffffffffffffffffffffff021916908373ffffffffffffffffffffffffffffffffffffffff1602179055508173ffffffffffffffffffffffffffffffffffffffff168173ffffffffffffffffffffffffffffffffffffffff167f8be0079c531659141344cd1fd0a4f28419497f9722a3daafe3b4186f6b6457e060405160405180910390a35050565b6119be6116e9565b60018060006101000a81548160ff0219169083151502179055507f62e78cea01bee320cd4e420270b5ea74000d11b0c9f74754ebdbfc544b05a258611a01611b69565b604051611a0e9190612360565b60405180910390a1565b611a9b846323b872dd60e01b858585604051602401611a3993929190612bb9565b604051602081830303815290604052907bffffffffffffffffffffffffffffffffffffffffffffffffffffffff19166020820180517bffffffffffffffffffffffffffffffffffffffffffffffffffffffff8381831617835250505050611aa1565b50505050565b6000611b03826040518060400160405280602081526020017f5361666545524332303a206c6f772d6c6576656c2063616c6c206661696c65648152508573ffffffffffffffffffffffffffffffffffffffff16611bba9092919063ffffffff16565b9050600081511480611b25575080806020019051810190611b249190612c1c565b5b611b64576040517f08c379a0000000000000000000000000000000000000000000000000000000008152600401611b5b90612cbb565b60405180910390fd5b505050565b600033905090565b611b79611031565b611bb8576040517f08c379a0000000000000000000000000000000000000000000000000000000008152600401611baf90612d27565b60405180910390fd5b565b6060611bc98484600085611bd2565b90509392505050565b606082471015611c17576040517f08c379a0000000000000000000000000000000000000000000000000000000008152600401611c0e90612db9565b60405180910390fd5b6000808673ffffffffffffffffffffffffffffffffffffffff168587604051611c409190612e4a565b60006040518083038185875af1925050503d8060008114611c7d576040519150601f19603f3d011682016040523d82523d6000602084013e611c82565b606091505b5091509150611c9387838387611c9f565b92505050949350505050565b60608315611d01576000835103611cf957611cb985611d14565b611cf8576040517f08c379a0000000000000000000000000000000000000000000000000000000008152600401611cef90612ead565b60405180910390fd5b5b829050611d0c565b611d0b8383611d37565b5b949350505050565b6000808273ffffffffffffffffffffffffffffffffffffffff163b119050919050565b600082511115611d4a5781518083602001fd5b806040517f08c379a0000000000000000000000000000000000000000000000000000000008152600401611d7e9190612f22565b60405180910390fd5b604051806101000160405280600073ffffffffffffffffffffffffffffffffffffffff168152602001600073ffffffffffffffffffffffffffffffffffffffff168152602001600073ffffffffffffffffffffffffffffffffffffffff16815260200160008152602001600067ffffffffffffffff168152602001600061ffff16815260200160006005811115611e2157611e20611f88565b5b8152602001600080191681525090565b600080fd5b6000819050919050565b611e4981611e36565b8114611e5457600080fd5b50565b600081359050611e6681611e40565b92915050565b600060208284031215611e8257611e81611e31565b5b6000611e9084828501611e57565b91505092915050565b600073ffffffffffffffffffffffffffffffffffffffff82169050919050565b6000611ec482611e99565b9050919050565b611ed481611eb9565b82525050565b6000819050919050565b6000611eff611efa611ef584611e99565b611eda565b611e99565b9050919050565b6000611f1182611ee4565b9050919050565b6000611f2382611f06565b9050919050565b611f3381611f18565b82525050565b611f4281611e36565b82525050565b600067ffffffffffffffff82169050919050565b611f6581611f48565b82525050565b600061ffff82169050919050565b611f8281611f6b565b82525050565b7f4e487b7100000000000000000000000000000000000000000000000000000000600052602160045260246000fd5b60068110611fc857611fc7611f88565b5b50565b6000819050611fd982611fb7565b919050565b6000611fe982611fcb565b9050919050565b611ff981611fde565b82525050565b6000819050919050565b61201281611fff565b82525050565b60006101008201905061202e600083018b611ecb565b61203b602083018a611ecb565b6120486040830189611f2a565b6120556060830188611f39565b6120626080830187611f5c565b61206f60a0830186611f79565b61207c60c0830185611ff0565b61208960e0830184612009565b9998505050505050505050565b61209f81611eb9565b81146120aa57600080fd5b50565b6000813590506120bc81612096565b92915050565b6120cb81611f48565b81146120d657600080fd5b50565b6000813590506120e8816120c2565b92915050565b6120f781611f6b565b811461210257600080fd5b50565b600081359050612114816120ee565b92915050565b61212381611fff565b811461212e57600080fd5b50565b6000813590506121408161211a565b92915050565b600080600080600080600060e0888a03121561216557612164611e31565b5b60006121738a828b016120ad565b97505060206121848a828b016120ad565b96505060406121958a828b016120ad565b95505060606121a68a828b01611e57565b94505060806121b78a828b016120d9565b93505060a06121c88a828b01612105565b92505060c06121d98a828b01612131565b91505092959891949750929550565b60006020820190506121fd6000830184611f39565b92915050565b60008115159050919050565b61221881612203565b82525050565b6000602082019050612233600083018461220f565b92915050565b61224281611eb9565b82525050565b61225181611f18565b82525050565b61226081611e36565b82525050565b61226f81611f48565b82525050565b61227e81611f6b565b82525050565b61228d81611fde565b82525050565b61229c81611fff565b82525050565b610100820160008201516122b96000850182612239565b5060208201516122cc6020850182612239565b5060408201516122df6040850182612248565b5060608201516122f26060850182612257565b5060808201516123056080850182612266565b5060a082015161231860a0850182612275565b5060c082015161232b60c0850182612284565b5060e082015161233e60e0850182612293565b50505050565b60006101008201905061235a60008301846122a2565b92915050565b60006020820190506123756000830184611ecb565b92915050565b60006020828403121561239157612390611e31565b5b600061239f848285016120ad565b91505092915050565b600082825260208201905092915050565b7f62757965722f73656c6c65723d30000000000000000000000000000000000000600082015250565b60006123ef600e836123a8565b91506123fa826123b9565b602082019050919050565b6000602082019050818103600083015261241e816123e2565b9050919050565b7f746f6b656e3d3000000000000000000000000000000000000000000000000000600082015250565b600061245b6007836123a8565b915061246682612425565b602082019050919050565b6000602082019050818103600083015261248a8161244e565b9050919050565b7f616d6f756e743d30000000000000000000000000000000000000000000000000600082015250565b60006124c76008836123a8565b91506124d282612491565b602082019050919050565b600060208201905081810360008301526124f6816124ba565b9050919050565b7f66656520746f6f20686967680000000000000000000000000000000000000000600082015250565b6000612533600c836123a8565b915061253e826124fd565b602082019050919050565b6000602082019050818103600083015261256281612526565b9050919050565b7f4e487b7100000000000000000000000000000000000000000000000000000000600052601160045260246000fd5b60006125a382611e36565b91507fffffffffffffffffffffffffffffffffffffffffffffffffffffffffffffffff82036125d5576125d4612569565b5b600182019050919050565b600060a0820190506125f56000830188611ecb565b6126026020830187611f39565b61260f6040830186611f5c565b61261c6060830185611f79565b6126296080830184612009565b9695505050505050565b7f6e6f742066756e64656400000000000000000000000000000000000000000000600082015250565b6000612669600a836123a8565b915061267482612633565b602082019050919050565b600060208201905081810360008301526126988161265c565b9050919050565b7f6e6f7420617574686f72697a6564000000000000000000000000000000000000600082015250565b60006126d5600e836123a8565b91506126e08261269f565b602082019050919050565b60006020820190508181036000830152612704816126c8565b9050919050565b600061271682611e36565b915061272183611e36565b925082820261272f81611e36565b9150828204841483151761274657612745612569565b5b5092915050565b7f4e487b7100000000000000000000000000000000000000000000000000000000600052601260045260246000fd5b600061278782611e36565b915061279283611e36565b9250826127a2576127a161274d565b5b828204905092915050565b60006127b882611e36565b91506127c383611e36565b92508282039050818111156127db576127da612569565b5b92915050565b60006040820190506127f66000830185611f39565b6128036020830184611f39565b9392505050565b7f6e6f74206f70656e000000000000000000000000000000000000000000000000600082015250565b60006128406008836123a8565b915061284b8261280a565b602082019050919050565b6000602082019050818103600083015261286f81612833565b9050919050565b7f636f6c6c6563746f723d30000000000000000000000000000000000000000000600082015250565b60006128ac600b836123a8565b91506128b782612876565b602082019050919050565b600060208201905081810360008301526128db8161289f565b9050919050565b7f6f6e6c7920627579657200000000000000000000000000000000000000000000600082015250565b6000612918600a836123a8565b9150612923826128e2565b602082019050919050565b600060208201905081810360008301526129478161290b565b9050919050565b7f6578706972656400000000000000000000000000000000000000000000000000600082015250565b60006129846007836123a8565b915061298f8261294e565b602082019050919050565b600060208201905081810360008301526129b381612977565b9050919050565b7f4f776e61626c653a206e6577206f776e657220697320746865207a65726f206160008201527f6464726573730000000000000000000000000000000000000000000000000000602082015250565b6000612a166026836123a8565b9150612a21826129ba565b604082019050919050565b60006020820190508181036000830152612a4581612a09565b9050919050565b7f5061757361626c653a2070617573656400000000000000000000000000000000600082015250565b6000612a826010836123a8565b9150612a8d82612a4c565b602082019050919050565b60006020820190508181036000830152612ab181612a75565b9050919050565b7f5265656e7472616e637947756172643a207265656e7472616e742063616c6c00600082015250565b6000612aee601f836123a8565b9150612af982612ab8565b602082019050919050565b60006020820190508181036000830152612b1d81612ae1565b9050919050565b6000604082019050612b396000830185611ecb565b612b466020830184611f39565b9392505050565b7f4f776e61626c653a2063616c6c6572206973206e6f7420746865206f776e6572600082015250565b6000612b836020836123a8565b9150612b8e82612b4d565b602082019050919050565b60006020820190508181036000830152612bb281612b76565b9050919050565b6000606082019050612bce6000830186611ecb565b612bdb6020830185611ecb565b612be86040830184611f39565b949350505050565b612bf981612203565b8114612c0457600080fd5b50565b600081519050612c1681612bf0565b92915050565b600060208284031215612c3257612c31611e31565b5b6000612c4084828501612c07565b91505092915050565b7f5361666545524332303a204552433230206f7065726174696f6e20646964206e60008201527f6f74207375636365656400000000000000000000000000000000000000000000602082015250565b6000612ca5602a836123a8565b9150612cb082612c49565b604082019050919050565b60006020820190508181036000830152612cd481612c98565b9050919050565b7f5061757361626c653a206e6f7420706175736564000000000000000000000000600082015250565b6000612d116014836123a8565b9150612d1c82612cdb565b602082019050919050565b60006020820190508181036000830152612d4081612d04565b9050919050565b7f416464726573733a20696e73756666696369656e742062616c616e636520666f60008201527f722063616c6c0000000000000000000000000000000000000000000000000000602082015250565b6000612da36026836123a8565b9150612dae82612d47565b604082019050919050565b60006020820190508181036000830152612dd281612d96565b9050919050565b600081519050919050565b600081905092915050565b60005b83811015612e0d578082015181840152602081019050612df2565b60008484015250505050565b6000612e2482612dd9565b612e2e8185612de4565b9350612e3e818560208601612def565b80840191505092915050565b6000612e568284612e19565b915081905092915050565b7f416464726573733a2063616c6c20746f206e6f6e2d636f6e7472616374000000600082015250565b6000612e97601d836123a8565b9150612ea282612e61565b602082019050919050565b60006020820190508181036000830152612ec681612e8a565b9050919050565b600081519050919050565b6000601f19601f8301169050919050565b6000612ef482612ecd565b612efe81856123a8565b9350612f0e818560208601612def565b612f1781612ed8565b840191505092915050565b60006020820190508181036000830152612f3c8184612ee9565b90509291505056fea2646970667358221220e7475802d354142803b452f3b1e06992bf6a06ba89691d3c802fbaea491881af64736f6c63430008180033",
  "linkReferences": {},
  "deployedLinkReferences": {}
}